:1000000045C0000060C000005EC000005CC0000091
:100010005AC0000058C0000056C0000054C0000084
:1000200052C0000050C000004EC000004CC0000094
:100030004AC000006DC0000046C0000044C000007F
:1000400042C0000040C000003EC000003CC00000B4
:100050003AC0000038C0000036C0000034C00000C4
:1000600032C0000030C000002EC000002CC00000D4
:100070002AC0000028C0000026C0000024C00000E4
:1000800022C0000020C000001EC0000011241FBEBE
:10009000CFEFD0E4DEBFCDBF11E0A0E0B1E0E2E2FF
:1000A000F4E000E00BBF02C007900D92A430B1074E
:1000B000D9F721E0A4E0B1E001C01D92A231B2075E
:1000C000E1F714D1ACC19CCF8BE0809381008DE728
:1000D00090E0909389008093880082E080936F0085
:1000E000109285001092840080910001909101018E
:1000F000A0910201B091030180930A0190930B013A
:10010000A0930C01B0930D018FB780688FBF089545
:100110001F920F920FB60F9211248F939F93AF935C
:10012000BF9380910A0190910B01A0910C01B091B5
:100130000D010197A109B10980930A0190930B0168
:10014000A0930C01B0930D01892B8A2B8B2B99F472
:1001500081E0809309018091000190910101A091BB
:100160000201B091030180930A0190930B01A093C7
:100170000C01B0930D01BF91AF919F918F910F90A2
:100180000FBE0F901F9018956093000170930101AE
:10019000809302019093030160930A0170930B0115
:1001A00080930C0190930D01089580910F0181308F
:1001B00051F028F0823059F0833069F010C081E0AE
:1001C00080930F0117C082E080930F011AC083E073
:1001D00080930F011DC081E080930F010BC081301F
:1001E00049F028F0823069F08330C1F411C01092D8
:1001F0000801089580910801887F8160809308013B
:10020000089580910801887F826080930801089595
:1002100080910801887F846080930801089580910F
:100220001101813041F018F0823049F00CC081E0BA
:100230008093110111C082E08093110110C081E010
:100240008093110109C0813039F018F0823069F4CF
:1002500006C0109207010895109207010895809139
:100260000701807F886080930701089580910E01C7
:10027000813051F018F0823079F012C081E0809323
:100280000E011092040118C0809106018823A1F08C
:1002900082E080930E0116C081E080930E010CC0B5
:1002A000813051F018F0823091F40CC0809105013A
:1002B0008F7E809305010895809105018F7E809344
:1002C00005010895809105018061809305010895DD
:1002D00080911001811109C090910801809107015E
:1002E000892B90910501892B85B90895CF93DF93D0
:1002F00000D000D0CDB7DEB711B88FEF82B984B986
:1003000015B861E070E080E090E03EDFDDDE109245
:100310000F011092110110920E0119821A821B8294
:100320001C82412C512C3201689441F80F2EF8EEBA
:100330008F2EF3E09F2EA12CB12CF02D0F2EFCE27E
:10034000CF2EDD24D394E12CF12CF02D80B18095BB
:100350008470809306018823A9F122E0421651049B
:100360006104710478F189819A81AB81BC81883EF6
:100370009340A105B10580F479DF89819A81AB8131
:10038000BC810196A11DB11D89839A83AB83BC8377
:10039000412C512C320116C089819A81AB81BC81DC
:1003A000883B2BE09207A105B10540F40196A11D01
:1003B000B11D89839A83AB83BC8304C019821A82DE
:1003C0001B821C828CE2C81681E0D806E104F1048D
:1003D00020F0EBDEC12CD12C760198EE891693E04B
:1003E0009906A104B10420F01ADF812C912C54014C
:1003F0006FDF809109018823E1F310920901AFEFCB
:10040000CA1ADA0AEA0AFA0ABFEF8B1A9B0AAB0A7F
:10041000BB0A2FEF421A520A620A720A97CFF89467
:02042000FFCF0C
:0404220001000000D5
:00000001FF
